:100000000C9434000C942A010C943B010C94510084
:100010000C9451000C940E010C9451000C9451005E
:100020000C9451000C94E8000C9451000C94510075
:100030000C9451000C9451000C9451000C945100FC
:100040000C9451000C9451000C9451000C945100EC
:100050000C9451000C9451000C9451000C945100DC
:100060000C9451000C94510011241FBECFEFD8E026
:10007000DEBFCDBF11E0A0E0B1E0EEECF3E002C0E6
:1000800005900D92A430B107D9F711E0A4E0B1E0DA
:1000900001C01D92AB30B107E1F70E944C010C94F6
:1000A000E5010C94000080910201909103010A96F1
:1000B0009093030180930201853691056CF084E6EC
:1000C00090E090930301809302018FEF90E0909372
:1000D0000101809300010895809100019091010138
:1000E0004996909301018093000108958091020147
:1000F000909103010A97909303018093020197FD69
:100100000AC080910001909101014A9790930101EA
:100110008093000108951092030110920201109241
:100120000101109200010895282F6130710581F0BE
:100130003AB181E090E002C0880F991F2A95E2F75A
:10014000282F209523232AB92BB1822B8BB9089510
:100150008AB102C0660F771F2A95E2F7862B8AB90B
:10016000089529B130E002C0359527958A95E2F7C8
:1001700020FD09C010920501109204018091040134
:1001800090910501089581E090E09093050180939E
:10019000040180910401909105010895382F672B87
:1001A00059F02BB181E090E002C0880F991F3A9579
:1001B000E2F7282B2BB908952BB181E090E002C023
:1001C000880F991F3A95E2F7809582238BB908959D
:1001D0001F920F920FB60F9211248F939F938091CD
:1001E000090190910A01019690930A0180930901F7
:1001F0008091090190910A01CE9748F08091080101
:1002000081608093080110920A01109209019F9168
:100210008F910F900FBE0F901F9018951F920F9205
:100220000FB60F9211248F939F93809106019091A6
:1002300007010196909307018093060180910801C0
:100240008260809308019F918F910F900FBE0F9055
:100250001F9018951F920F920FB60F9211248F9333
:10026000809108018460809308018F910F900FBEE8
:100270000F901F9018951F920F920FB60F92112496
:100280008F93809108018860809308018F910F906F
:100290000FBE0F901F90189581E090E060E070E035
:1002A0000E94940082E090E060E070E00E94940080
:1002B00083E090E060E070E00E94940086E090E0CF
:1002C00061E070E00E94940087E090E061E070E0FF
:1002D0000E949400809168008460809368008091FF
:1002E0006D00826080936D007894809169008D7FAD
:1002F0008093690080916900816080936900E89A29
:10030000789480916900877F80936900809169006B
:10031000846080936900E99A78941092B0001092FA
:10032000B2008091B10085608093B1008091B100EE
:1003300082608093B1008091700081608093700032
:10034000789484B5836084BD84B5806884BD84B5A9
:100350008F7B84BD17BC16BC85B5856085BD85B512
:100360008D7F85BD7894499B14C080910601909142
:100370000701892BB1F48091080180FFF4CF8BB184
:1003800080588BB9809108018E7F8093080149992C
:10039000ECCF8091080182FD10C08091080183FD9F
:1003A00004C08091000187BDDECF0E94760080915D
:1003B0000801877F80930801F4CF0E945300809149
:0E03C00008018B7F80930801E8CFF894FFCFEF
:0403CE008000320079
:00000001FF
