:100000000C9434000C949C000C94AD000C944600AD
:100010000C9446000C9446000C9446000C94460048
:100020000C9446000C9446000C9446000C94460038
:100030000C9446000C9446000C9446000C94460028
:100040000C9446000C9446000C9446000C94460018
:100050000C9446000C9446000C9446000C94460008
:100060000C9446000C94460011241FBECFEFD8E03C
:10007000DEBFCDBF11E0A0E0B1E001C01D92A7300E
:10008000B107E1F70E94BE000C94AF010C94000090
:10009000282F6130710581F03AB181E090E002C013
:1000A000880F991F2A95E2F7282F209523232AB934
:1000B0002BB1822B8BB908958AB102C0660F771FCE
:1000C0002A95E2F7862B8AB9089529B130E002C05B
:1000D000359527958A95E2F720FD09C01092010118
:1000E000109200018091000190910101089581E03A
:1000F00090E0909301018093000180910001909124
:1001000001010895382F672B59F02BB181E090E061
:1001100002C0880F991F3A95E2F7282B2BB9089552
:100120002BB181E090E002C0880F991F3A95E2F769
:10013000809582238BB908951F920F920FB60F926C
:1001400011248F93809106018160809306018F9125
:100150000F900FBE0F901F9018951F920F920FB621
:100160000F9211248F938091060182608093060183
:100170008F910F900FBE0F901F9018950F931F93A4
:10018000CF93DF9382E090E060E070E00E9448004F
:1001900083E090E060E070E00E94480086E090E03C
:1001A00061E070E00E94480087E090E061E070E06C
:1001B0000E9448008091690081608093690080916D
:1001C00069008D7F80936900E89A78948091690036
:1001D00084608093690080916900877F80936900C3
:1001E000E99A78948091020190910301C1E0D0E0F6
:1001F00002E010E081309105E1F08230910581F15B
:100200000097C1F78091060180FF47C0D09303019A
:10021000C0930201809106018E7F80930601809138
:1002200006018D7F8093060181E090E08130910589
:1002300021F72091060120FD2AC021FF3CC0109328
:10024000030100930201809106018E7F80930601D5
:10025000809106018D7F8093060182E090E0CACFF5
:100260002091060121FD16C020FF1EC0109203013F
:1002700010920201809106018E7F80930601809189
:1002800006018D7F8093060180E090E0B3CF21FFCF
:10029000B1CFD5CF20FFAECFE9CF0E947C018091B6
:1002A000020190910301A6CF0E9462018091020198
:1002B000909103019FCF0E946F0180910201909164
:1002C000030198CF86E090E060E070E00E94820039
:1002D00087E090E060E070E00E948200089586E090
:1002E00090E061E070E00E94820087E090E061E0D1
:1002F00070E00E948200089586E090E061E070E086
:100300000E94820087E090E061E070E00E9482003D
:1003100020E030E040E951E0CA010197F1F72F5F9A
:100320003F4F8EE420323807B9F787E090E060E075
:1003300070E00E94820086E090E060E070E00E9441
:10034000820020E030E040E951E0CA010197F1F776
:100350002F5F3F4F8EE420323807B9F70895F894A5
:02036000FFCFCD
:00000001FF
