:100000000C9434000C9446000C9446000C9446006A
:100010000C9446000C9446000C9446000C94460048
:100020000C9446000C9446000C9446000C94460038
:100030000C9446000C9446000C9446000C94460028
:100040000C9446000C9446000C9446000C94460018
:100050000C9446000C9446000C9446000C94460008
:100060000C9446000C94460011241FBECFEFD8E03C
:10007000DEBFCDBF11E0A0E0B1E001C01D92A23013
:10008000B107E1F70E949C000C942A010C94000037
:10009000282F6130710581F03AB181E090E002C013
:1000A000880F991F2A95E2F7282F209523232AB934
:1000B0002BB1822B8BB908958AB102C0660F771FCE
:1000C0002A95E2F7862B8AB9089529B130E002C05B
:1000D000359527958A95E2F720FD09C01092010118
:1000E000109200018091000190910101089581E03A
:1000F00090E0909301018093000180910001909124
:1001000001010895382F672B59F02BB181E090E061
:1001100002C0880F991F3A95E2F7282B2BB9089552
:100120002BB181E090E002C0880F991F3A95E2F769
:10013000809582238BB908950F931F93CF93DF93FC
:1001400086E090E061E070E00E94480087E090E087
:1001500061E070E00E94480082E090E060E070E0C2
:100160000E94480083E090E060E070E00E94480058
:10017000C0E9D1E082E090E00E9465008C0183E05C
:1001800090E00E94650001301105B9F1012B91F753
:100190008130910509F444C0892B61F786E090E035
:1001A00061E070E00E94820020E030E0CE01019723
:1001B000F1F72F5F3F4F87E220313807B9F786E02C
:1001C00090E060E070E00E94820087E090E061E0F3
:1001D00070E00E94820020E030E0CE010197F1F74C
:1001E0002F5F3F4F87E220313807B9F787E090E073
:1001F00060E070E00E948200BDCF81309105E9F09F
:10020000892B09F0B7CF86E090E060E070E00E94B3
:10021000820087E090E061E070E00E948200AACF57
:1002200086E090E061E070E00E94820087E090E06C
:1002300060E070E00E9482009DCF86E090E060E088
:1002400070E00E94820087E090E060E070E00E9431
:08025000820090CFF894FFCF6B
:00000001FF
