:100000000C9434000C9451010C9469010C9446003A
:100010000C9446000C9446000C9446000C94460048
:100020000C9446000C9483010C9446000C944600FA
:100030000C9446000C9446000C9446000C94460028
:100040000C9446000C9446000C9446000C94460018
:100050000C9446000C9446000C9446000C94460008
:100060000C9446000C94460011241FBECFEFD8E03C
:10007000DEBFCDBF11E0A0E0B1E001C01D92AD3008
:10008000B107E1F70E94AC010C94E5010C9400006B
:10009000EAE7F0E080818F7B808380E890E09093B6
:1000A0000B0180930A01089580917A008064809307
:1000B0007A0080917A0086FDFCCF8091780090E0F4
:1000C000909301018093000140917900342F20E04A
:1000D0003093030120930201280F391F309305014B
:1000E000209304012333310510F1C901C3978639E8
:1000F0009105B0F0C901895C90408C529140E0F0CC
:10010000C901855F9140845F9140E8F0295E3340EA
:1001100030F08FEF90E090930B0180930A010895E7
:100120008FE390E090930B0180930A010895109261
:100130000B0110920A0108958FE790E090930B0154
:1001400080930A0108958FEB90E090930B018093C8
:100150000A01089586E090E060E070E00E94F000FF
:10016000EAE7F0E080818F7B80830895282F61305B
:10017000710581F03AB181E090E002C0880F991FCB
:100180002A95E2F7282F209523232AB92BB1822B19
:100190008BB908958AB102C0660F771F2A95E2F7DE
:1001A000862B8AB9089529B130E002C0359527958C
:1001B0008A95E2F720FD09C010920701109206010E
:1001C0008091060190910701089581E090E090935D
:1001D000070180930601809106019091070108951F
:1001E000382F672B59F02BB181E090E002C0880FC7
:1001F000991F3A95E2F7282B2BB908952BB181E08E
:1002000090E002C0880F991F3A95E2F7809582230B
:100210008BB90895E9E6F0E0808181608083808178
:100220008D7F8083E89A7894E9E6F0E080818460AD
:1002300080838081877F8083E99A789408951092E3
:10024000B0001092B200E1EBF0E080818560808325
:10025000808182608083E0E7F0E08081816080833C
:100260007894089584B5836084BD84B5806884BD26
:1002700084B58F7B84BD16BC85B5856085BD85B58D
:100280008D7F85BD78940895ECE7F0E08081108241
:10029000808180648083EAE7F0E0808180688083E9
:1002A00008951F920F920FB60F9211248F939F9370
:1002B00090910C019095917080910C018E7F892B0B
:1002C00080930C019F918F910F900FBE0F901F9004
:1002D00018951F920F920FB60F9211248F939F9330
:1002E00080910C01869580958170880F90910C010A
:1002F0009D7F982B90930C019F918F910F900FBE33
:100300000F901F9018951F920F920FB60F92112405
:100310002F938F939F9380910801909109010196EB
:10032000909309018093080180910801909109013F
:100330008153914048F080910C01846080930C01BE
:1003400010920901109208019F918F912F910F90A7
:100350000FBE0F901F90189582E090E060E070E073
:100360000E94B60083E090E060E070E00E94B6007A
:1003700086E090E061E070E00E94B6000E940A0111
:100380000E941F010E9432010E94440180910C01D1
:1003900080FF12C081FF13C082FFF8CF80910C0153
:1003A0008B7F80930C010E94540080910A0187BDCD
:1003B00080910C0180FDEECF0E94AA00E7CF0E9441
:0E03C000480080910A0187BDE1CFF894FFCF7D
:00000001FF
