:100000000C9434000C94FB000C9446000C944600B5
:100010000C9446000C9446000C9446000C94460048
:100020000C9446000C9446000C9446000C94460038
:100030000C9446000C9446000C9446000C94460028
:100040000C9446000C9446000C9446000C94460018
:100050000C9446000C9446000C9446000C94460008
:100060000C9446000C94460011241FBECFEFD8E03C
:10007000DEBFCDBF11E0A0E0B1E001C01D92AB300A
:10008000B107E1F70E9416010C9463010C94000083
:1000900080917A00806480937A0080917A0086FD56
:1000A000FCCF8091780090E0909301018093000153
:1000B00040917900342F20E0309303012093020116
:1000C000280F391F30930501209304012D3C310581
:1000D00008F1C9018D5C90408E3C910580F0C9010A
:1000E0008B5991408C3C910500F12756324068F0C5
:1000F0008FEF90E0909307018093060106C080E89F
:1001000090E0909307018093060180910601909101
:10011000070108958FE390E0909307018093060113
:10012000809106019091070108958FEB90E09093E4
:1001300007018093060180910601909107010895BF
:100140008FE390E090930701809306010895282F94
:100150006130710581F03AB181E090E002C0880F12
:10016000991F2A95E2F7282F209523232AB92BB12E
:10017000822B8BB908958AB102C0660F771F2A952A
:10018000E2F7862B8AB9089529B130E002C035958F
:1001900027958A95E2F720FD09C010920901109277
:1001A00008018091080190910901089581E090E093
:1001B00090930901809308018091080190910901B1
:1001C0000895382F672B59F02BB181E090E002C0E1
:1001D000880F991F3A95E2F7282B2BB908952BB178
:1001E00081E090E002C0880F991F3A95E2F7809570
:1001F00082238BB908951F920F920FB60F9211248C
:100200008F939F9380910A018095817090910A014C
:100210009E7F982B90930A018BB180588BB99F9148
:100220008F910F900FBE0F901F90189582E090E075
:1002300060E070E00E94A70086E090E061E070E07E
:100240000E94A70087E090E061E070E00E94A700B4
:10025000809169008D7F8093690080916900816041
:1002600080936900E89A789484B5836084BD84B5EE
:10027000806884BD84B58F7B84BD17BC16BC85B5F2
:10028000856085BD85B58D7F85BD789480917C0026
:1002900010927C0080917C00806480937C0080912F
:1002A0007A00806880937A0080910A0180FD07C0FF
:1002B0000E94A00087BD80910A0180FFF9CF0E94B3
:0A02C000480087BDF1CFF894FFCF8E
:00000001FF
